:020000040800F2
:10000000C0070020BD0100084D2D00087522000822
:10001000492D0008D5050008C13F00080000000078
:10002000000000000000000000000000F53E000895
:10003000C907000800000000092E0008B93F0008A9
:10004000D7010008D7010008D7010008D701000830
:10005000D7010008D7010008D7010008D701000820
:10006000D7010008D7010008D7010008D701000810
:10007000D7010008D7010008D7010008D701000800
:10008000D7010008D7010008D7010008D7010008F0
:10009000D7010008D7010008D7010008D7010008E0
:1000A000D7010008D7010008D7010008D7010008D0
:1000B000D7010008D7010008D7010008D7010008C0
:1000C000D7010008D7010008D7010008D7010008B0
:1000D000D7010008D7010008D7010008D7010008A0
:1000E000D7010008D7010008D701000800F002F886
:1000F00000F055F814A696E8000CB244B344DA4573
:1001000001D100F04CF8BAE80F000FA696E83000D5
:10011000A5EB040504EB0607AAEB0704A7F101070A
:100120004FEA15154FEA3414A4F10104AC4201D38F
:1001300000F035F813F0010F18BFFB1A43F001036C
:1001400000F001F8DBE718476C6300008C630000E7
:10015000103A24BF78C878C1FAD8520724BF30C8F3
:1001600030C144BF04680C60704700007047000055
:100170000023002400250026103A28BF78C1FBD8B0
:10018000520728BF30C148BF0B607047642900F098
:100190007180002070471FB51FBD10B510BD00F065
:1001A000DEF91146FFF7F7FF03F00CFF00F0FCF952
:1001B00003B4FFF7F2FF03BC00F004FA09488047DC
:1001C00009480047FEE7FEE7FEE7FEE7FEE7FEE739
:1001D000FEE7FEE7FEE7FEE704480549054A064B51
:1001E00070470000BD3F0008ED000008C00100207E
:1001F000C0070020C0030020C00300200FB41CB5BE
:10020000074B06AA7B4469460090059800F08FF9D9
:100210000020694600F09EF91CBC5DF814FB00004C
:100220004D03000070B5044685690068C10601D51C
:10023000302600E02026C00707D070BDD4E9012198
:1002400030469047206A401C20626D1EF6D570BD76
:1002500070B5044685690078C00707D170BDD4E940
:10026000012120209047206A401C20626D1EF6D597
:1002700070BD00002DE9F041064600241068752984
:10028000314616A510D0AFF30080002802DA4042B4
:1002900013A507E031688A0701D512A502E04907D6
:1002A00004D511A5012401E0AFF3008000210A224A
:1002B00006F1240709E0B0FBF2FCB0FBF2F302FB0D
:1002C0001C00303078541846491C0028F3D12346CE
:1002D0002A463046BDE8F04100F0CBB800000000EF
:1002E0002D0000002B000000200000002DE9F05F31
:1002F000894604464FF0000ADFF824B1FB44C0F8F9
:1003000020A02046E168884700287DD0252806D017
:10031000D4E901219047206A401C2062F1E70025C2
:100320005F462046E16888472028064607DB312ED5
:1003300005D2B81910F8200C08B10543F1E7A80759
:1003400001D525F00405C4F81CA00027C4F818A0A6
:100350002A2E09D0304603F0EEFF38B304EB8708AD
:10036000303EC8F8186019E059F8041B204604EB29
:1003700087029161E1688847012F064618D1E0693C
:10038000002820DA25F020051DE0D8F8180000EB41
:10039000800006EB40003038C8F818002046E168BD
:1003A0008847064603F0C7FF0028EED1012F0AD088
:1003B0002E2E08D12046E16888477F1C0646022F72
:1003C00045F02005C4DBA069002803DA404245F06F
:1003D0000105A061E80701D025F01005A6B1A6F13E
:1003E0004100192802D8203645F400654A463146B6
:1003F000204625604D46FFF7C9FE60B1012807D0B1
:10040000ED1D25F0070000E007E000F1080978E79E
:1004100005F1040975E730467AE7206ABDE8F09FE8
:100420004440000040EA0103024630B59B0710D16A
:100430004FF0013400E008C208C91D1B9D4315EAB6
:10044000C41FF8D013F0FF0102F8011B0DD01B0AE6
:10045000F8E711F8013B002B02F8013B05D011F839
:10046000013B002B02F8013BF3D130BD70477047D0
:1004700070472DE9F0470D4699469246044600F133
:1004800024080168880604D5E06921F01001216084
:1004900000E00120A84201DD471B00E00027A16920
:1004A0007A1902EB0900081AA0612078C00602D46C
:1004B0002046FFF7B7FE002608E0D4E901211AF82C
:1004C00006009047206A401C761C20624E45F4DBF3
:1004D0002078C0060AD52046FFF7A4FE06E0D4E93E
:1004E000012130209047206A401C2062381EA7F16D
:1004F0000107F4DC07E0D4E9012118F80500904772
:10050000206A401C2062281EA5F10105F3DC20466C
:10051000FFF79EFE2078000602D50220BDE8F08796
:100520000120FBE701694A1C02610878704700B5A9
:100530008FB0CDE901310021059105497944CDE91C
:10054000031011466846FFF7D1FE0FB000BD000052
:10055000E5FFFFFF0A6802F8010B0A607047754665
:1005600000F02CF8AE4605006946534620F007001F
:10057000854618B020B5FFF72FFEBDE820404FF0AC
:1005800000064FF000074FF000084FF0000BAC469C
:10059000ACE8C009ACE8C009ACE8C009ACE8C009E7
:1005A00021F007018D46704710B50446AFF3008077
:1005B0002046BDE81040FFF7FBBD00000048704733
:1005C0009000002001491820ABBEFEE72600020083
:1005D00070470000FEE7000070B584B040F2B4112F
:1005E000C2F20001262002F081F938B940F2B414B9
:1005F000C2F20004204601F0EDFF08B104B070BD66
:1006000040F21C00C2F20000217802788A420DD12B
:10061000427863789A4209D18278A3789A4205D1C8
:10062000C278E3789A4201D1002013E090F83A2092
:100630008A4219D190F83B106278914214D190F817
:100640003C10A27891420FD190F83D00E1788842A9
:100650000AD1012001F010FE4FF4FA6000F0B6F864
:10066000002002F0EFFE0BE002F072FB4FF4FA60A4
:1006700000F0ACF8002002F0E5FE002003F084FA60
:1006800040F21005C2F20005D5E900304FF6FF76C2
:1006900046F262420024CDE90006C0F600022020A6
:1006A0001421029403F0DCFB19202D214FF49172E8
:1006B0002D23009602F02AFE192032214FF4917268
:1006C0003223009602F022FED5E9003046F2734252
:1006D000CDE90006C0F6000237203C21029403F069
:1006E000BFFBD5E9003046F25742CDE90006C0F61F
:1006F000000237205F21029403F0B2FB04B0BDE892
:10070000704002F01FBD00002DE9F04784B040F6B4
:100710000048C4F201088A46064640464FF480511C
:1007200000224FF0000900F06DF9802040F25C15C6
:1007300040EA4600C2F200058DF8090064240DF17C
:10074000090102AA28460123009401F013FC0DF1CF
:100750000B010DF10A02284601238DF80B9000943D
:1007600001F008FC9DF80A7040464FF480510122C8
:1007700000F048F940464FF48051002227EA0A076A
:1007800000F040F97E2000EA46008DF80D000DF1E2
:100790000D0103AA28460123009401F0EBFB0DF1A3
:1007A0000F010DF10E02284601238DF80F70009401
:1007B00001F0E0FB40464FF48051012200F022F9A5
:1007C00004B0BDE8F087000070470000B0B50446F3
:1007D00000F01EF9054640F20000C2F20000007869
:1007E000611C18BF044400BF00F012F9401BA04276
:1007F000FAD3B0BD2DE9F04F82B00E68002E00F0A4
:10080000FD8041F20042C4F20102042340F2004E96
:10081000904208BF03234FF6FF7CC4F2010E009301
:1008200000240123C1F2100C4FF0000A4FF0000920
:100830004BE000BF41F20002C4F20102009F90426F
:1008400008BF022704F00C030F229A402BEA020291
:1008500007FA03F34FEA9A051A4346F825204E6833
:1008600040F20C45F202DEF8082054BF22EA0802EA
:1008700042EA0802C4F20105CEF808202A68B30251
:1008800054BF22EA080242EA08022A60B303DEF8F3
:10089000042054BF22EA080242EA0802F303CEF819
:1008A0000420DEF800204FF0010354BF22EA0802C2
:1008B00042EA0802CEF800200E680AF1010A36FA70
:1008C0000AF204F1040400F0998003FA0AFB16EA24
:1008D0000B08F1D04E68664512DC122E56D8DFE8C0
:1008E00006F0350B4D4955555555555555555555EA
:1008F00055555545510000BFD1F80C9046E000BF5A
:100900004FF6FF72C1F2210296420FDC0022C1F2C3
:10091000110296421AD00022C1F21202964215D05C
:100920000022C1F22102964210D02FE00022C1F233
:10093000220296420AD00022C1F23102964205D02C
:100940000022C1F23202964220D100BF8A684AB129
:10095000012A14BFC0F814B0C0F810B04FF0080955
:1009600014E000BF4FF0040910E000BFCA6802F1B4
:1009700004090BE04FF0000908E000BFCA6802F16B
:10098000080903E0CA6802F10C0900BF02462646C6
:10099000B8F5807F24BF0432203E17680F25B5408C
:1009A00027EA050509FA06F635431560CA79D20625
:1009B0007FF582AF41F21803C4F202031A68AEF564
:1009C0007E7642F001021A601A6802F0010201927A
:1009D000019A2AF0030256F802B040F60002C4F26F
:1009E0000102904208D040F60042C4F20102904257
:1009F0007FF420AF012725E7002723E702B0BDE8F9
:100A0000F08F0000002A08BF090401617047000050
:100A100040F2B810C2F200000068704740F20000D7
:100A200040F2B811C2F20000C2F2000100780A6878
:100A3000104408607047000080B542F20000C4F224
:100A40000200016841F010010160032000F07AF813
:100A50000F2000F005F800F027F8002080BD00000E
:100A600070B540F20006C2F2000640F2180132787A
:100A7000C2F200014FF47A730968B3FBF2F2044644
:100A8000B1FBF2F1084601F0DFFB0F2C4FF001053E
:100A900008D838B94FF0FF3021460022002500F079
:100AA00025F87460284670BD82B041F21800C4F287
:100AB00002000168022241F001010160016801F0B9
:100AC000010101910199416841F080514160406804
:100AD00000F08050009000980420C4F201000168EA
:100AE00062F31A61016002B07047000010B54EF663
:100AF0000C5CCEF2000CDCF80030C3F3022E8EF05A
:100B00000704042C28BF0424BEF103034FF0FF3E6A
:100B10000EFA04F438BF0023A14399400EFA03F300
:100B20009A43114300F00F0200F160430901043AB7
:100B300003F564436244002848BF02F10C031970B6
:100B400010BD00004EF60C51CEF200010A684FF6BF
:100B5000FF031A4060F30A2242F0806040F0FD700B
:100B6000086070472020C4F20E2001210160704708
:100B7000012821D002280DD0102808D141F204010B
:100B8000C4F202010A6851F8040CC00134D40020F8
:100B9000704700BF80B500F0C7F941F20401C4F20C
:100BA000020109680222C1F3813102EB4101B0FB6D
:100BB000F1F0BDE88040704741F20400C4F2020049
:100BC000C16940F202320A40B2F5817F04BF4FF49E
:100BD0000040704701F44071B1F5407F18D0B1F585
:100BE000007F1CBF00207047006A49F64041800723
:100BF00001EAE070704700BFC2F3834015A3185CA0
:100C0000D2030DD440F60012C0F23D02504313E06F
:100C100050F8040C4FF22441800301EAE070704761
:100C20000A6810A3C2F340429A5C41F20023C0F26A
:100C30007A03B3FBF2F250430968490248BF704798
:100C40004AF6AB214000CAF6AA21A0FB01014808E0
:100C5000704700BF02030405060708090A0B0C0DC4
:100C60000E0F1010010200002DE9F04182B0044681
:100C7000007841F21C06C007C4F202064AD0306870
:100C80005FEAC00808D4306840F0805030603068B7
:100C900000F080500190019847F20007C4F200076D
:100CA0003868C00512D4386840F480703860FFF7A7
:100CB000AFFE05463868C00508D4FFF7A9FE401B03
:100CC0006428F7D9032002B0BDE8F081706810F401
:100CD000407012D0616801F4407188420DD0706894
:100CE00040F24042C4F24222012320F440711360DA
:100CF0000023C0071360716026D17068616820F41A
:100D000040700843B8F1000F706003D4306820F0E1
:100D1000805030602068810707D556F8181CA268FB
:100D200021F44041114346F8181CC00607D556F877
:100D3000180CE16820F48000084346F8180C0020E5
:100D400002B0BDE8F08100BFFFF762FE054641F248
:100D5000883700BF70688007CFD4FFF759FE401B6B
:100D6000B8424FF00300F5D9EAE70000002804BFBD
:100D7000012070472DE9F04381B042F20008C4F22F
:100D800002080446D8F800000D4600F00700814232
:100D90000CD9D8F8000020F007002843C8F800005C
:100DA000D8F8000000F00700A8426CD1206841F29A
:100DB00004098107C4F2020917D5410705D5D9F8FE
:100DC000001041F4E061C9F80010010705D5D9F819
:100DD000001041F46051C9F80010D9F80010A26861
:100DE00021F0F0011143C9F80010C00742D1D8F832
:100DF000000000F0070085420CD2D8F8000020F077
:100E000007002843C8F80000D8F8000000F00700E9
:100E1000A84238D12068410707D5D9F80010E26808
:100E200021F4E0611143C9F80010000708D5D9F892
:100E30000000216920F4605040EAC100C9F80000B8
:100E4000D9F8002002F00C00082841F20020C0F27E
:100E50007A004DD146F21843C2F38341C0F6000335
:100E6000595CD20338D440F60010C0F23D0048432C
:100E70003EE000BF606859F8041C022808D0012831
:100E800026D1890306D4012001B0BDE8F08300BF5C
:100E90008901F8D5D9F8001021F003010843C9F8F9
:100EA0000000FFF7B5FD064641F28837D9F800008B
:100EB000616800F00C00B0EB810F98D0FFF7A8FD3F
:100EC000801BB842F2D9032001B0BDE8F08300BF17
:100ED0008907D8D5DEE700BFD9F8002046F21643CF
:100EE000C2F34042C0F600039A5C4843B0FBF2F004
:100EF000D9F8001044F25532C1F30311C0F60002D4
:100F0000515C40F2180220FA01F140F20400C2F2F2
:100F100000000068C2F200021160FFF7A1FD00208E
:100F200001B0BDE8F083000040F2180041F2040176
:100F3000C2F20000C4F202010068096844F265329E
:100F4000C1F3C221C0F60002515CC84070470000E6
:100F5000002804BF012070472DE9F04182B004460B
:100F6000007841F20006C007C4F202060CD0706897
:100F700000F00C00042840F081803068800303D525
:100F80006068002800F04681207880071BD57068D3
:100F900010F00C0F09D0706800F00C00082840F029
:100FA00087807068C00300F183803068800703D5B4
:100FB0002069012840F02E813068616920F0F80036
:100FC00040EAC10030602078000713D42078400741
:100FD0002CD4E569002D00F01881706800F00C0039
:100FE000082840F0A780012D40F00481012002B0C4
:100FF000BDE8F081A069002800F084800020C4F2E0
:1010000042200121C0F88014FFF702FD054600BF11
:10101000706A800700F1B280FFF7FAFC401B0228DB
:10102000F6D9032002B0BDE8F08100BFF0695FEAA5
:10103000C00808D4F06940F08050F061F06900F019
:1010400080500090009847F20007C4F2000738680B
:10105000C00549D4386840F480703860FFF7D8FC88
:10106000054600BF3868C0053ED4FFF7D1FC401BE1
:101070006428F7D9032002B0BDE8F081706800F061
:101080000C00082803D17068C0033FF576AF616893
:101090003068002900F00C81B1F5A02F00F000812C
:1010A000B1F5803F40F01A8140F480301CE100BF70
:1010B0002069002840F20000C4F2422000F088803D
:1010C00001210160FFF7A4FC054600BF30688007DE
:1010D0003FF572AFFFF79CFC401B0228F6D90320B6
:1010E00002B0BDE8F08100BFE168306A002900F07D
:1010F0009D80052900F09280012940F0AF8040F0EA
:101100000100B1E00020C4F242200021C0F88014A8
:10111000FFF77EFC054600BF706A80077FF556AF7B
:10112000FFF776FC401B0228F6D9032002B0BDE889
:10113000F08100BF0027C4F2422700203866FFF785
:1011400067FC022D05460DD13068800140F1DE803C
:10115000FFF75EFC401B02284FF00300F4D902B0F9
:10116000BDE8F081306880014FD5FFF751FC401B8E
:1011700002284FF00300F5D9F1E700BF40F2180054
:10118000C2F20000006844F6D351C1F26201A0FB34
:101190000101480A019000BF00BF0198411E0028CC
:1011A00001913FF413AF00BF0198411E0028019147
:1011B0003FF40CAF00BF0198411E002801913FF49D
:1011C00005AF00BF0198411E00280191E4D1FDE662
:1011D00000210160FFF71CFC054600BF3068800756
:1011E0007FF5F1AEFFF714FC401B02284FF003001F
:1011F000F4D9B4E77068216A00F480328A4209D1D8
:10120000616A00F47010884204D1002002B0BDE889
:10121000F08100BF012002B0BDE8F08140F0040081
:101220003062306A40F001001EE000BF20F0010093
:101230003062306A20F004003062FFF7E9FB0546B7
:1012400041F28837306A800720D5FFF7E1FB401B69
:10125000B8424FF00300F5D981E700BF20F001004C
:101260003062306A20F004003062FFF7D1FB05469F
:1012700041F28837306A800708D4FFF7C9FB401B6A
:10128000B842F7D9032002B0BDE8F081B8F1000FF1
:101290003FF59FAEF06920F08050F06199E600BF05
:1012A00040F480203060306840F480301CE000BFA3
:1012B00020F480303060306820F480203060FFF708
:1012C000A7FB0546306880037FF55EAEFFF7A0FB05
:1012D000401B64284FF00300F4D940E720F480302D
:1012E0003060306820F480203060FFF791FB0546C5
:1012F000306880033FF548AEFFF78AFB401B642847
:10130000F6D9032002B0BDE8F08100BF206AB0F535
:10131000803F05D17168A26821F4003111437160EA
:101320007168626A21F474111143084370600120EE
:101330003866FFF76DFB0446306880013FF565AF06
:10134000FFF766FB001B02284FF00300F4D906E705
:1013500070B582B0034600208DF80600ADF8040099
:10136000002B4FF0010018BF002901D102B070BD61
:1013700014460D4601A9184600221E4600F04EF8FC
:1013800010B1012002B070BD96F80CC0727BB07B2A
:10139000F37B85F800C0EB706A70A870D4B329465F
:1013A000A3F10A05ECB24FF0CD0C04FB0CF4E40AF7
:1013B00004EB8406A5EB4605A2F10A0605EB04142E
:1013C000F5B205FB0CF55FFA83FEED0ABEF1090FDD
:1013D00088BF04F1100305EB8504CB70D3B2A6EBF4
:1013E000440606EB0516092BA0F10A0388BF06F197
:1013F0001002DEB206FB0CF6F60A06EB86054A7012
:10140000C2B2A3EB450303EB0613092A88BF03F11D
:1014100010008870002002B070BD00002DE9F04778
:10142000064600284FF0010000F0AE800C4600296F
:1014300008BFBDE8F08730684168490700F1E080E7
:1014400091468269C169836992B29BB29A4203D183
:1014500089B241EA024103E0C16989B241EA03412C
:101460004BF2C532C9F2A212A1FB0223DA0A4FF4F1
:10147000616302FB131348F689059FB26F437D0D2C
:1014800065702D01A5EB5757A3EB870345F2801735
:10149000C0F20107B942A37036D344F20753CCF22D
:1014A0002E23A1FB03374AF6AB23C0F6AA23A2FBE7
:1014B000033505EB4503A2EBC3022270026A406AC2
:1014C0004FEA174880B240EA0240451A98BF4FF0F1
:1014D000FF35421C4AF68062CFF6FE7208FB021A04
:1014E00008BF0546FFF794FA074600BF3068416819
:1014F00089064BD4FFF78CFAC01BB0F57A7FF5D97B
:101500000120BDE8F08700BF2270B9F1000F3AD08A
:1015100021784FF0CD0CA1F10A07FEB206FB0CF6C4
:10152000F60A627806EB8605CBB2A7EB450707EB18
:101530000617092BA2F10A03A07888BF07F1100152
:10154000DFB207FB0CF7FF0A07EB87062170D1B269
:10155000A3EB460303EB0713092988BF03F110022D
:101560006270A0F10A02D3B203FB0CF3DB0A03EBB7
:101570008307C1B2A2EB470202EB0312092988BF1D
:1015800002F11000A0700020BDE8F087416841F032
:10159000100141604FEA1A4181611FFA8AF1C1616D
:1015A000416821F010014160FFF732FA074600BFA1
:1015B00030684068800609D4FFF72AFAC01BB0F5EE
:1015C0007A7FF5D90120BDE8F08700BF681C11D0F3
:1015D0005544FFF71DFA074630684168890613D461
:1015E000FFF716FAC01BB0F57A7F4FF00100F3D970
:1015F000CAE700BF30464FF0FF3101F073FD08B37A
:101600000120BDE8F08700BF416841F01001416052
:10161000290C0162A9B24162416821F010014160C8
:10162000FFF7F6F9074600BF30684068800609D426
:10163000FFF7EEF9C01BB0F57A7F4FF00100F3D948
:10164000A2E700BF3046414601F0E0FBB9F1000FD0
:101650007FF45EAF97E70000002804BF01207047C9
:1016600070B50446407C20B900202074204600F06C
:101670006BF8022060742068416821F00801416025
:10168000FFF7C6F9064600BF20684568FFF7C0F9B6
:10169000290705460ED4A81BB0F57A7FF4D901209E
:1016A0000421617470BD00BFFFF7B2F9401BB0F5B3
:1016B0007A7FF4D8216848688006F5D5486846F6F0
:1016C0002C4240F0100048604868C4F2000220F04C
:1016D00007004860A06818B1536823F00103536005
:1016E000136823F46073184310606068421C05D1CE
:1016F0000120FFF73DFA18B321680138C0F3034217
:1017000080B28A60C860486820F010004860FFF727
:101710007FF9054620684068800607D4FFF778F90E
:10172000401BB0F57A7FF5D9B9E700BF40F201114F
:101730000020A4F80D100121E073617470BD00BF9A
:1017400004210120617470BD006842F60001C4F2FA
:101750000001884218BF704780B582B0FFF702FAD7
:1017600041F21C00C4F20200016841F00061016016
:101770000068012100F000600190019840F23C40B7
:10178000C4F24220016002B0BDE880407047000012
:1017900070B582B0044600208DF80600ADF8040054
:1017A000002C4FF0010018BF002901D102B070BD1C
:1017B000207C01284FF00200F8D00123237401ABF4
:1017C000607420460D46194616460022FFF726FE95
:1017D00000284FF00100E9D132469DF804009DF841
:1017E00005604FF4616329469DF806505843C6EBE7
:1017F000061600EB86000E782844CAB13209A2EB27
:10180000820206EB4202D2B25A434B788E78190913
:10181000A1EB810103EB4101C9B2C1EB011102EB64
:1018200081013209A2EB820206EB420207E000BF0F
:1018300073434E788A78C6EB061103EB8101D2B26E
:101840008E1806F58031864238BF01F5A346FFF7B2
:10185000DFF8054620684168890607D4FFF7D8F805
:10186000401BB0F57A7FF5D91AE000BF416841F01E
:1018700010014160310C0162B1B24162416821F056
:1018800010014160FFF7C4F8054600BF20684068BA
:10189000800609D4FFF7BCF8401BB0F57A7FF5D974
:1018A0000120042102E000BF002001216174002119
:1018B000217402B070BD0000F0B581B0044600286C
:1018C0004FF0010018BF002902D101B0F0BD00BFE8
:1018D000207C01284FF00200F7D0012323746074AC
:1018E000CB788AB11809A0EB800003EB400348785D
:1018F0008A780709A7EB870700EB47071009A0EBD9
:10190000800002EB400001E04F788878FEB2022EA2
:10191000DAB2E3736773A0730AD817237B43DBB291
:1019200039277B435F0A02F2CF7340F2D47609E095
:1019300048F63E67C0F20207774302F5FA633F0CB0
:1019400040F2D276C0B21044304440F21F5500EB52
:1019500093005D433844A0EB554000EBD54082B284
:1019600042F293435A43A0EB12439BB25B0803EB52
:1019700012429208A2EBC2020244206822730A704B
:101980008269C169836992B29BB29A4204D188B2DA
:1019900040EA024004E000BFC06980B240EA034070
:1019A00045F69071C0F2010188424FF000061BD34A
:1019B00044F20751CCF22E21A0FB0112110C40F28F
:1019C000A3225143A0EBC117FFF722F8054600BF41
:1019D0002068416889060DD4FFF71AF8401BB0F55E
:1019E0007A7FF5D93AE000BF0121002061742674A6
:1019F00001B0F0BD416841F010014160390C8161D6
:101A0000B9B2C161416821F010014160FFF700F8EF
:101A1000054600BF20684168890607D4FEF7F8FF35
:101A2000401BB0F57A7FF5D918E000BF016A406A23
:101A300080B240EA0140B84234D200F5803000F56F
:101A4000A347FEF7E5FF05462068416889060BD4E9
:101A5000FEF7DEFF401BB0F57A7FF5D901200421A7
:101A60006174267401B0F0BD416841F0100141601D
:101A7000390C0162B9B24162416821F01001416044
:101A8000FEF7C6FF05462068406880060AD4FEF7C8
:101A9000BFFF411B0120B1F57A7F4FF00401F2D95D
:101AA000A4E700BF002001216174267401B0F0BDDD
:101AB00070B5044600284FF0010018BF002901D17D
:101AC00070BD00BF207C01284FF0020008BF70BD30
:101AD0000123237460740878D2B10209A2EB820258
:101AE00000EB4200C0B24FF4616250434A788978FB
:101AF0001309A3EB830302EB4302D2B2C2EB02123F
:101B000000EB82000A09A2EB820201EB420108E02D
:101B10004FF4616250434A788978C2EB021200EBBD
:101B20008200C9B24618FEF773FF05462068416877
:101B3000890607D4FEF76CFF401BB0F57A7FF5D914
:101B400054E000BF416841F010014160310C8161F7
:101B5000B1B2C161416821F010014160FEF758FF48
:101B6000054600BF20684168890607D4FEF750FF8C
:101B7000401BB0F57A7FF5D938E000BF416821F00D
:101B800005014160016A406A80B240EA0140B0420A
:101B900032D200F5803000F5A346FEF739FF054646
:101BA00020684168890607D4FEF732FF401BB0F574
:101BB0007A7FF5D91AE000BF416841F01001416019
:101BC000310C0162B1B24162416821F01001416003
:101BD000FEF71EFF054600BF2068406880060BD454
:101BE000FEF716FF401BB0F57A7FF5D901200421DE
:101BF00061740021217470BD0020012161740021F5
:101C0000217470BD70B528B1416A29B1002101610C
:101C1000142106E0012070BD4168B1F5827F02D039
:101C20001C21002242500026866290F8511029B9EA
:101C300080F85060054600F039F82846022180F807
:101C4000511090E82E0002F482720C6803F40443F1
:101C500024F040040C601A4405F4006305691A443A
:101C600005F0020345691A4405F001038569C4695A
:101C70001A4405F400731A4404F03803046A1A4441
:101C800004F08003846A1A4304F400531A430A6080
:101C9000042202EA15424A60CA6922F40062CA615B
:101CA0000121466580F85110304670BD70B586B090
:101CB000006843F60001C4F2000188424FF00001C1
:101CC000CDE90411CDE9021122D043F20001C4F2A2
:101CD000010188424ED141F21800C4F202000168AD
:101CE00040F6000441F4805101600168402601F48F
:101CF0008051019101990168C4F2010441F004018D
:101D00000160006800F0040001900198A0201FE02D
:101D100041F21800C4F2020041684FF4804641F4D9
:101D200080414160416801F480410191019901685D
:101D300041F008010160006800F00800019001987E
:101D400040F60000C4F2010000F580644FF420402A
:101D5000029002200390032002AD05902046294600
:101D6000FEF748FD0020CDE90300204629460296F3
:101D7000FEF740FD06B070BD2DE9F04182B01D4672
:101D800016460F460446FEF743FE94F8511001290B
:101D90000ED18046002F4FF0010018BF002E03D156
:101DA00002B0BDE8F08100BF94F85000012803D1D3
:101DB000022002B0BDE8F081012084F85000032029
:101DC000002184F8510061652763A686E686A16339
:101DD000A187E187A0682164B0F5004F20686164A5
:101DE00007D1016821F040010160016841F48041A0
:101DF00001600168490603D4016841F040010160B7
:101E00006168731EE268B1FA81F1B3FA83F349099C
:101E10005B09B2F5006F41EA030139D131B137F8FE
:101E2000021BC1602763E08E0138E086E08E002847
:101E300070D0681C0BD11AE0216B31F8022BC26004
:101E40002163E08E0138E086E08E002862D02068B1
:101E500081688907F0D4FEF7DBFDA0EB0800A842FB
:101E6000F2D338E0FEF7D4FDE08E002852D020688F
:101E700081688907F6D5216B31F8022BC260216396
:101E8000E08E0138E086E08E0028F0D142E000BF0D
:101E900039B139780173206B01302063E08E01384D
:101EA000E086E08EB0B3681C0BD123E0216B09788B
:101EB0000173206B01302063E08E0138E086E08EF4
:101EC00040B3206881688907F0D4FEF7A1FDA0EB3C
:101ED0000800A842F3D3012084F85100002084F8C0
:101EE0005000032002B0BDE8F08100BFFEF790FD76
:101EF000E08E78B1206881688907F7D5216B097871
:101F00000173206B01302063E08E0138E086E08EA3
:101F10000028EFD12046022101222B46CDF8008077
:101F200001F064F940B92046802100222B46CDF80B
:101F3000008001F05BF928B1606D40F02000606521
:101F400020206065A06838B9002001902068C16831
:101F50000191806801900198012084F851000020CF
:101F600084F85000606D002818BF012002B0BDE861
:101F7000F08100002DE9F04383B01E4615460F4660
:101F80000446FEF745FD94F851108146012909D118
:101F9000002F4FF0010018BF002D0FD103B0BDE896
:101FA000F08300BF6068B0F5827F0DD104294FF047
:101FB0000200F3D1A1680029EAD0EFE7002EEDD0AE
:101FC00094F85000012803D1022003B0BDE8F0834B
:101FD000012084F8500094F85100002104281CBF0F
:101FE000052084F851006165A563E687A68727630D
:101FF000E6862068A686216461640168490603D4E8
:10200000016841F0400101606168731EE268B1FA45
:1020100081F1B3FA83F3DDF8288049095B09B2F551
:10202000006F41EA030165D131B137F8021BC1608D
:102030002763E08E0138E086012518F1010032D1D6
:1020400002E000BFFEF7E4FCE08E18B9E08F002844
:1020500000F0B8802068816889070CD5E18E51B105
:10206000012D08D1216B002531F8022BC2602163BC
:10207000E18E0139E1868168C907E3D0E18F00294B
:10208000E0D0C068A16B012521F8020BA163E08FAD
:102090000138E087D6E700BFFEF7BAFCA0EB0900E5
:1020A000404580F0AF80E08E18B9E08F002800F046
:1020B00089802068816889070CD5E18E51B1012D96
:1020C00008D1216B002531F8022BC2602163E18E1B
:1020D0000139E1868168C907DED0E18F0029DBD0B4
:1020E000C068A16B012521F8020BA163E08F0138C4
:1020F000E087D1E739B139780173206B0130206373
:10210000E08E0138E086012518F1010032D101E0AE
:10211000FEF77EFCE08E10B9E08F002852D02068D8
:10212000816889070ED5E18E61B1012D0AD1216B3D
:10213000002509780173216B206801312163E18E4C
:102140000139E1868168C907E2D0E18F0029DFD03B
:10215000C068A16B01250870A06B0130A063E08FFF
:102160000138E087D4E700BFFEF752FCA0EB09007E
:10217000404547D2E08E08B9E08F18B320688168E7
:1021800089070ED5E18E61B1012D0AD1216B0025A1
:1021900009780173216B206801312163E18E0139D7
:1021A000E1868168C907DFD0E18F0029DCD0C068F3
:1021B000A16B01250870A06B0130A063E08F01388E
:1021C000E087D1E72046022101224346CDF8009066
:1021D00001F00CF840B92046802100224346CDF89A
:1021E000009001F003F8B8B1606D40F02000606528
:1021F00020206065002084F85000012003B0BDE875
:10220000F08300BF012084F85100002084F85000C2
:10221000032003B0BDE8F083A06838B90020029025
:102220002068C1680291806802900298012084F8B9
:102230005100002084F85000606D002818BF012074
:1022400003B0BDE8F0830000411E0020B0EB116F29
:102250001CBF012070474EF21002CEF20002516006
:102260004EF62351CEF20001F0230B70072190604F
:1022700011607047FEE700002DE9F04F93B040F287
:102280001C01C2F200013A2200FB02164FF6FF7950
:10229000708C96F824100130002906F10404708433
:1022A00000F0BC800025002086F8245001F0CAF818
:1022B00040F21000C2F20000D0E9003046F27F4246
:1022C000CDE90009C0F6000220201421029501F09A
:1022D000C7FD40F2F000C2F200000DF12101002222
:1022E000FFF79CF80DF12E0840462146FEF79AF8BC
:1022F000728C46F290410DF1240AC0F6000150465E
:10230000FDF77CFF46F2A4479DF821209DF822307E
:102310009DF82340C0F600070DF10D0039460094EA
:10232000FDF76CFF9DF821209DF822309DF8234099
:1023300006F12F0B584639460094FDF75FFF40F237
:102340000807C2F20007D7E9003046F22842CDE97B
:102350000009C0F6000219202D21029501F080FD30
:10236000D7E900302D21CDE90009642042460295CD
:1023700001F076FDD7E9003046F24242CDE900098E
:10238000C0F6000219204621029501F069FDD7E947
:10239000003006F12502CDE900098C204621029586
:1023A00001F05EFDD7E9003046F24C42CDE900096C
:1023B000C0F6000219205F21029501F051FDD7E916
:1023C00000305F21CDE900098C205A46029501F0CA
:1023D00047FDD7E9003075A2CDE900091920782121
:1023E000029501F03DFDD7E9003046F22F42CDE9DC
:1023F0000009C0F6000219209121029501F030FD7C
:10240000D7E900309121CDE90009F020524602952C
:1024100001F026FD13B0BDE8F08F00BF012086F863
:10242000240000204FF0000B01F00CF840F21000E7
:10243000C2F20000D0E9003046F27F42CDE9000947
:10244000C0F6000220201421CDF808B001F008FDEC
:1024500040F2F000C2F200000DF121010022FEF76F
:10246000DDFF0DF12E0A50462146FDF7DBFF728C91
:1024700046F290410DF12408C0F600014046FDF7F8
:10248000BDFE46F2A4479DF821209DF822309DF81C
:102490002340C0F600070DF10D0039460094FDF70A
:1024A000ADFE9DF821209DF822309DF8235006F1C5
:1024B0002504204639460095FDF7A0FE40F20807A6
:1024C000C2F20007D7E9003046F22842CDE9000900
:1024D000C0F6000219202D21CDF808B001F0C0FC93
:1024E000D7E900302D21CDE9000964205246CDF80E
:1024F00008B001F0B5FCD7E9003046F24242CDE920
:102500000009C0F6000219204621CDF808B001F0FC
:10251000A7FCD7E900304621CDE900098C202246EE
:10252000CDF808B001F09CFCD7E9003046F24C42EF
:10253000CDE90009C0F6000219205F21CDF808B0EE
:1025400001F08EFCD7E9003006F12F02CDE9000939
:102550008C205F21CDF808B001F082FCD7E9003073
:1025600017A2CDE9000919207821CDF808B001F0B3
:1025700077FCD7E9003046F22F42CDE90009C0F6DA
:10258000000219209121CDF808B001F069FCD7E9CB
:1025900000309121CDE90009F0204246CDF808B085
:1025A00001F05EFC13B0BDE8F08F00BF5472616EA5
:1025B0006720746861693A204461207261000000FC
:1025C0005472616E6720746861693A2044612076B4
:1025D000616F00002DE9F04184B040F60045C4F27F
:1025E0000105044628464FF4805100224FF00008B0
:1025F000FEF708FA40F25C161A20C2F200068DF8C7
:102600000D0064270DF10D0103AA30460123009748
:10261000FFF7B0FC0DF10F010DF10E023046012362
:102620008DF80F800097FFF7A5FC28464FF48051E6
:102630000122FEF7E7F942F29300208002AF0C205E
:10264000214602222346009700F096F910B104B00B
:10265000BDE8F08120786178A278E3784840504066
:1026600021795840401A18BF0120400004B0BDE84D
:10267000F0810000F0B583B040F60044C4F20104DC
:1026800020464FF480510122FEF7BCF920464FF45A
:1026900000610122FEF7B6F920464FF48051002276
:1026A0000027FEF7AFF940F25C150220C2F20005E8
:1026B0008DF80B0064260DF10B010DF10A0228467E
:1026C00001230096FFF756FC0F208DF80B000DF14B
:1026D0000B010DF10A02284601230096FFF74AFC80
:1026E00020464FF480510122FEF78CF920464FF42A
:1026F00080510022FEF786F954208DF80B000DF171
:102700000B010DF10A02284601230096FFF732FC67
:102710008D208DF80B000DF10B010DF10A022846FA
:1027200001230096FFF726FC20464FF4805101223A
:10273000FEF768F920464FF480510022FEF762F957
:1027400056208DF80B000DF10B010DF10A02284601
:1027500001230096FFF70EFC3E208DF80B000DF1D3
:102760000B010DF10A02284601230096FFF702FC37
:1027700020464FF480510122FEF744F920464FF4E1
:1027800080510022FEF73EF95A208DF80B000DF122
:102790000B010DF10A02284601230096FFF7EAFB20
:1027A0001E208DF80B000DF10B010DF10A022846D9
:1027B00001230096FFF7DEFB20464FF480510122F3
:1027C000FEF720F920464FF480510022FEF71AF957
:1027D00058208DF80B000DF10B010DF10A0228466F
:1027E00001230096FFF7C6FB0DF10B010DF10A0264
:1027F000284601238DF80B700096FFF7BBFB20469F
:102800004FF480510122FEF7FDF820464FF480512D
:102810000022FEF7F7F82A208DF80B000DF10B01CE
:102820000DF10A02284601230096FFF7A3FB402082
:102830008DF80B000DF10B010DF10A022846012362
:102840000096FFF797FB20464FF480510122FEF7D8
:10285000D9F820464FF480510022FEF7D3F8222009
:102860008DF80B000DF10B010DF10A022846012332
:102870000096FFF77FFB3D208DF80B000DF10B015B
:102880000DF10A02284601230096FFF773FB20464C
:102890004FF480510122FEF7B5F820464FF48051E5
:1028A0000022FEF7AFF8A8208DF80B000DF10B0108
:1028B0000DF10A02284601230096FFF75BFB0DF19C
:1028C0000B010DF10A02284601238DF80B700096CA
:1028D000FFF750FB20464FF480510122FEF792F89B
:1028E0001420032101F008FB03B0F0BD2DE9F041F5
:1028F00084B040F60048C4F201080C460546404644
:102900004FF480510022FEF77DF840F25C171A2048
:10291000C2F200078DF80D0064260DF10D0103AA27
:10292000384601230096FFF725FB07208DF80F009E
:102930000DF10F010DF10E02384601230096FFF74D
:1029400019FB40464FF480510122FEF75BF802AFBD
:102950000C202146012223462570009700F00CF838
:1029600002991029014618BF0221002818BF022130
:10297000084604B0BDE8F0812DE9F04F87B0174656
:102980000C2888460293049006D00E2808D1112006
:102990000590122007E000BF31200590772002E06B
:1029A00001200590002040F60045C4F20105039087
:1029B00000F1800428464FF4805100224FF00009B6
:1029C000FEF720F840F25C1A0420C2F2000A8DF8EB
:1029D0001B0064260DF11B010DF11A025046012364
:1029E0000096FFF7C7FA0DF11B010DF11A025046D0
:1029F00001238DF81B400096FFF7BCFA28464FF4E0
:102A000080510122FDF7FEFF04208021FDF77CFEAE
:102A10000A20802101F070FA28464FF480510022EC
:102A2000FDF7F0FF02208DF81B000DF11B010DF1E9
:102A30001A02504601230096FFF79CFA0DF11B0184
:102A40000DF11A02504601238DF81B900096FFF7F6
:102A500091FA28464FF480510122FDF7D3FF77B356
:102A600040F25C19A8F1010AC2F200090DF11B083D
:102A70000DF11A041AF801BF28464FF480510022C4
:102A80006426FDF7BFFF12208DF81B004846414623
:102A9000224601230096FFF76DFA64264846414618
:102AA000224601238DF81BB00096FFF763FA2846F3
:102AB0004FF480510122FDF7A5FF013FDAD12846EE
:102AC0004FF480510022FDF79DFF40F25C1402207C
:102AD000C2F200048DF81B000DF11B010DF11A026A
:102AE000204601230096FFF745FA049F0DF11B01D4
:102AF0000DF11A02204601238DF81B700096FFF796
:102B000039FA28464FF480510122FDF77BFF0C2F44
:102B100003D10D20802101F0EFF94FF6300740F28C
:102B20005C1BCFF6FF774FF088084FF0640AC2F2C3
:102B3000000B0DF11B060DF11A0400BF28464FF4DF
:102B400080510022FDF75EFF5846314622460123A0
:102B50008DF81B80CDF800A0FFF70CFA00208DF84F
:102B60001B005846314622460123CDF800A0FFF74E
:102B700001FA9DF81A9028464FF480510122FDF782
:102B800041FF013780F0D880059810EA090FD5D0B1
:102B90000D208021FDF7B8FD28464FF4805100221A
:102BA0000027FDF72FFF40F25C148C20C2F20004D6
:102BB0008DF81B0064260DF11B010DF11A02204651
:102BC00001230096FFF7D6F90DF11B010DF11A0252
:102BD000204601238DF81B700096FFF7CBF99DF876
:102BE0001A4028464FF480510122FDF70BFF14F0E4
:102BF0001B0F40F0A5800398049900EA09000C29F6
:102C000000F0010040F09D80059028464FF480516F
:102C100000220026FDF7F6FE40F25C199420C2F275
:102C200000090DF11A0B8DF81B0064240DF11B0136
:102C300048465A46012300944FF0010AFFF79AF9DB
:102C40000DF11B010DF11A02484601238DF81B609E
:102C50000094FFF78FF99DF81A8028464FF48051B1
:102C60000122FDF7CFFE28464FF480510022FDF7E8
:102C7000C9FE98208DF81B000DF11B010DF11A0201
:102C8000484601230094FFF775F90DF11B010DF182
:102C90001A02484601238DF81B600094FFF76AF979
:102CA0009DF81A6028464FF480510122FDF7AAFED4
:102CB00016F0070040EAC8001099A0F1080008BF0C
:102CC0004FEAC8000860B8F1010F98BFD046B8F1CC
:102CD000100F28BF4FF0100802984FF0920A461EBE
:102CE00028464FF480510022FDF78CFE0DF11B07A2
:102CF000484639465A4601238DF81BA00094FFF739
:102D000039F900208DF81B00484639465A46012300
:102D10000094FFF72FF99DF81A7028464FF4805160
:102D20000122FDF76FFEB8F1010806F8017FD7D147
:102D3000059807B0BDE8F08F0D208021FDF7E4FC79
:102D4000022007B0BDE8F08FFEE70000FEE70000BC
:102D500070B584B00020002400F074FB40F2100530
:102D6000C2F20005D5E900304FF6FF76CDE9000646
:102D700017A220201421029401F072F819202D21AD
:102D80004FF491722D23009600F0C0FA19203221E1
:102D90004FF491723223009600F0B8FAD5E9003072
:102DA0000FA2CDE900061E204621029401F058F83A
:102DB000D5E900300FA2CDE900061E205F21029464
:102DC00001F04EF8FF2004B0BDE8704000F0DCBE1A
:102DD000434845434B20494E204641494C45440019
:102DE000544845204B484F4E4720484F50204C45B3
:102DF00000000000565549204C4F4E47205448557E
:102E0000204C414900000000704700002DE9F043CC
:102E1000427B90F80EE090F80FC0002900F0E380AC
:102E2000012917D1C90700F0DE800C2A00F2DB80EF
:102E30000121914041F2AA53194200F0C780BEF12E
:102E40001F0FC0F0C9800C2A40F0CA800CF1010CA1
:102E50000122C6E045F6294945F628474DF20B7890
:102E600021F00103012441F2AA55CCF28F29C0F2CE
:102E70008F27C0F2A30803E00EF1010E023BD1D070
:102E80000C2A1AD804FA02F62E4209D0BEF11E0FFF
:102E90000CD90C2A0ED10CF1010C01220BE000BF61
:102EA00016F4256F24D0BEF11D0F03D80EF1010ECC
:102EB00003E000BF01324FF0010E0C2ADED804FA05
:102EC00002F62E420AD0BEF11F0FD5D30C2A0BD129
:102ED0000CF1010C01224FF0010ECFE716F4256F23
:102EE00010D0BEF11E0FC7D301324FF0010EC5E75F
:102EF000022AE2D1BEF11B0F0ED80EF1010E022202
:102F0000DBE700BF022AB9D1BEF11C0F10D20EF1CF
:102F1000010E0222B2E700BFBEF11D0F10D0BEF1BC
:102F20001C0F17D15FEA8C7218D0002231E000BF6D
:102F30000AD0BEF11D0F0FD14FF0010E03229DE705
:102F40004FF0010E0322B8E75FEA8C7210D0002226
:102F500031E000BF0222B0E702228FE71FFA8CF2B5
:102F600002FB09F24FEAB206BE420BD9012210E081
:102F70001FFA8CF202FB09F24FEAB206BE4213D9E5
:102F8000012218E04FEA321242454FF0000238BFEA
:102F90000122002A4FF002024FF01D0E08BF03224B
:102FA00008BF4FF0010E88E74FEA321242454FF05A
:102FB000000238BF0122002A4FF002024FF01D0E1E
:102FC00008BF032208BF4FF0010E57E711F4256F29
:102FD0004AD0BEF11E0F03D20EF1010E03E000BF76
:102FE00001324FF0010ED1B2022980F80FC04273B6
:102FF00080F80EE00CD8172251434CF21D72C1F636
:103000007142A1FB02210CF2CF7240F2D47309E0AD
:1030100048F63E63C0F2020359430CF5FA62090C0C
:1030200040F2D2735FFA8EF748F21F546744C5F23C
:10303000EB143B44A2FB044503EB9202A2EB5512B6
:1030400002EBD512114444F62512C2F29242A1FBC2
:103050000223CA1A03EB52029308DB00A3EB92028D
:10306000891A0173BDE8F083022ABCD1BEF11C0F9E
:1030700004D20EF1010E0222B5E700BF06D0BEF168
:103080001D0F09D14FF0010E0322ACE75FEA8C71EE
:1030900004D001211CE000BF0222A4E745F629422A
:1030A0001FFA8CF1CCF28F224A4345F628434FEAAF
:1030B000B201C0F28F2399424FF0000108D84DF2BF
:1030C0000A734FEA3212C0F2A3039A4288BF012169
:1030D00002224FF01D0E002918BF032218BF4FF027
:1030E000010E80E770B50D460446FDF791FC0646DB
:1030F00020684168890607D4FDF78AFC801BB0F57B
:103100007A7FF5D91AE000BF416841F010014160B3
:10311000290C0162A9B24162416821F010014160AD
:10312000FDF776FC054600BF20684068800607D49E
:10313000FDF76EFC401BB0F57A7FF5D9012070BD1C
:10314000002070BD2DE9F04190B040F2F004C2F2D1
:1031500000040DF13D01204600224FF00008FEF76B
:103160005DF90DF1390120460022FEF7F1F89DF8D6
:103170003D209DF83E309DF83F5046F2A4410DF1B0
:103180002504C0F6000120460095FDF737F89DF8AC
:103190003A309DF83B209DF83C6046F293410DF19A
:1031A0001105C0F6000128460096FDF727F840F209
:1031B0000806C2F20006D6E900304FF6FF77CDE9E7
:1031C0000007192082212246CDF8088000F048FE31
:1031D000D6E900308221CDE90007B4202A46CDF897
:1031E000088000F03DFE10B0BDE8F0812DE9F0430D
:1031F00081B0089C984615460E468146FDF708FCAE
:10320000201A00EB0804FDF703FC40F21801C2F29B
:1032100000010968C1F3CB3161430091D9F8001076
:103220008A683240921BB2FA82F2520995423DD02E
:10323000074618F1010031D0FDF7EAFBC01BA042A0
:1032400038D2009800990028A1F101010091D9F825
:103250000010896808BF044601EA0600801BB0FA26
:1032600080F040098542E7D120E000BF8868304007
:10327000801BB0FA80F04009854217D08868304042
:10328000801BB0FA80F0400985420FD0886830403A
:10329000801BB0FA80F04009854207D08868304032
:1032A000801BB0FA80F040098542DFD1002001B0D8
:1032B000BDE8F083D9E900014268B1F5827F22F0D0
:1032C000E00242600BD1D9F80810B1F5004F02D0EE
:1032D000B1F5806F03D1016821F040010160D9F898
:1032E0002810B1F5005F07D1016821F40051016099
:1032F000016841F400510160012089F8510000206B
:1033000089F85000032001B0BDE8F0832DE9F04FAB
:1033100081B0B3EB010C1C4648BFCCF1000C131A72
:1033200048BF5B429C4509D916460246A1420BD8CC
:103330003046A14616460C4608E000BF2646144615
:103340000A460146A142F3D9104689464FF0FF3B99
:10335000864238BF4FF0010BA14534D3A9EB0401DD
:103360001FFA81FA01EBDA3109B2801BDDF82880FF
:10337000C1F34F0748BF40429C4505B212D900BF78
:10338000B0B2A1B2424600F021F838B2471B38B2C1
:103390000134002844BF5E4400EB0A07A0B2484550
:1033A000EED910E0A0B2B1B2424600F00FF838B248
:1033B000471B38B20134002844BF5E4400EB0A07C3
:1033C000A0B24845EED901B0BDE8F08F10B582B08B
:1033D00014468209042A98BFA92901D902B010BD58
:1033E00002460B4600F004FC60BA40F60004C4F24A
:1033F0000104ADF80600204610210022FDF702FB73
:10340000204610210022FDF7FDFA04F5806001211D
:103410000122FDF7F7FA40F20410C2F200000DF1AC
:10342000060102224FF0FF33FEF7A6FC20461021D2
:103430000122FDF7E7FA204610210122FDF7E2FA0A
:1034400002B010BD2DE9F04F81B0054640F6000BEB
:103450000020002140F23F12A923C4F2010B4FF0DB
:10346000000900F0C5FB584610210022FDF7CAFAFA
:1034700040F204182F0A0BF58066C2F200080DF125
:10348000020A00BF002400BF5846102100228DF818
:1034900002708DF80350FDF7B5FA30460121012284
:1034A000FDF7B0FA4046514602224FF0FF33FEF7D7
:1034B00063FC584610210122FDF7A4FAA92C04F15F
:1034C0000104E1D3B9F59F7F09F10109DAD9584622
:1034D00010210122FDF796FA01B0BDE8F08F00003F
:1034E000F0B585B01420FDF771F940F60004C4F280
:1034F000010404F58065284602210022FDF782FAC6
:103500001420FDF763F92846022101220127FDF767
:1035100079FA9620FDF75AF93A208DF800002046F6
:1035200010210022FDF76EFA284601210022FDF746
:1035300069FA40F20416C2F20006694630460122DA
:103540004FF0FF33FEF718FC204610210122FDF753
:1035500059FA55208DF80000204610210022FDF771
:1035600051FA284601210122FDF74CFA69463046FE
:1035700001224FF0FF33FEF7FFFB2046102101220E
:10358000FDF740FAB2208DF80000204610210022FD
:10359000FDF738FA284601210022FDF733FA694683
:1035A000304601224FF0FF33FEF7E6FB20461021A4
:1035B0000122FDF727FA3320019040F60C40C3F2B8
:1035C00000300090204610210022FDF71BFA28460B
:1035D00001210122FDF716FA6946304605224FF017
:1035E000FF33FEF7C9FB204610210122FDF70AFA3E
:1035F00036208DF80000204610210022FDF702FA47
:10360000284601210022FDF7FDF9694630460122D6
:103610004FF0FF33FEF7B0FB204610210122FDF7EB
:10362000F1F9A0208DF80000204610210022FDF7BE
:10363000E9F9284601210122FDF7E4F969463046FF
:1036400001224FF0FF33FEF797FB204610210122A5
:10365000FDF7D8F9B7208DF8000020461021002290
:10366000FDF7D0F9284601210022FDF7CBF9694684
:10367000304601224FF0FF33FEF77EFB204610213B
:103680000122FDF7BFF935208DF8000020461021FA
:103690000022FDF7B7F9284601210122FDF7B2F912
:1036A0006946304601224FF0FF33FEF765FB2046A6
:1036B00010210122FDF7A6F9BB208DF8000020465D
:1036C00010210022FDF79EF9284601210022FDF776
:1036D00099F96946304601224FF0FF33FEF74CFB63
:1036E000204610210122FDF78DF919208DF80000E8
:1036F000204610210022FDF785F9284601210122EC
:10370000FDF780F96946304601224FF0FF33FEF79E
:1037100033FB204610210122FDF774F9C0208DF8FB
:103720000000204610210022FDF76CF928460121F7
:103730000022FDF767F96946304601224FF0FF335A
:10374000FEF71AFB204610210122FDF75BF92C2021
:103750008DF80000204610210022FDF753F928467D
:1037600001210122FDF74EF96946304601224FF052
:10377000FF33FEF701FB204610210122FDF742F93D
:10378000C2208DF80000204610210022FDF73AF9F2
:10379000284601210022FDF735F96946304601220D
:1037A0004FF0FF33FEF7E8FA204610210122FDF723
:1037B00029F92046102100228DF80070FDF722F92A
:1037C000284601210122FDF71DF9694630460122F4
:1037D0004FF0FF33FEF7D0FA204610210122FDF70B
:1037E00011F9C3208DF80000204610210022FDF7BA
:1037F00009F9284601210022FDF704F969463046FF
:1038000001224FF0FF33FEF7B7FA204610210122C4
:10381000FDF7F8F812208DF8000020461021002254
:10382000FDF7F0F8284601210122FDF7EBF8694683
:10383000304601224FF0FF33FEF79EFA204610215A
:103840000122FDF7DFF8C4208DF80000204610218A
:103850000022FDF7D7F8284601210022FDF7D2F813
:103860006946304601224FF0FF33FEF785FA2046C5
:1038700010210122FDF7C6F820208DF80000204617
:1038800010210022FDF7BEF8284601210122FDF794
:10389000B9F86946304601224FF0FF33FEF76CFA63
:1038A000204610210122FDF7ADF8C6208DF800005A
:1038B000204610210022FDF7A5F82846012100220C
:1038C000FDF7A0F86946304601224FF0FF33FEF7BE
:1038D00053FA204610210122FDF794F80F208DF8AD
:1038E0000000204610210022FDF78CF82846012117
:1038F0000122FDF787F86946304601224FF0FF3379
:10390000FEF73AFA204610210122FDF77BF8D0207D
:103910008DF80000204610210022FDF773F828469C
:1039200001210022FDF76EF86946304601224FF072
:10393000FF33FEF721FA204610210122FDF762F83D
:10394000A4208DF80000204610210022FDF75AF82F
:10395000284601210122FDF755F86946304601222B
:103960004FF0FF33FEF708FA204610210122FDF741
:1039700049F8A1208DF80000204610210022FDF713
:1039800041F8284601210122FDF73CF869463046FE
:1039900001224FF0FF33FEF7EFF9204610210122FC
:1039A000FDF730F8E0208DF80000204610210022BD
:1039B000FDF728F8284601210022FDF723F8694683
:1039C000304601224FF0FF33FEF7D6F92046102192
:1039D0000122FDF717F842F21F30039041F64C0028
:1039E000C0F60D30029042F61330C5F23F40019010
:1039F00040F2D040C1F20D1000902046102100226C
:103A0000FDF700F8284601210122FCF7FBFF69467B
:103A100030460E224FF0FF33FEF7AEF9204610215C
:103A20000122FCF7EFFFE1208DF800002046102175
:103A30000022FCF7E7FF284601210022FCF7E2FF05
:103A40006946304601224FF0FF33FEF795F92046D4
:103A500010210122FCF7D6FF42F22030039042F6FB
:103A60005170C1F61F70029042F61340C4F23F40FD
:103A7000019040F2D040C1F20C100090204610217D
:103A80000022FCF7BFFF284601210122FCF7BAFF04
:103A9000694630460E224FF0FF33FEF76DF920469F
:103AA00010210122FCF7AEFF21208DF800002046F6
:103AB00010210022FCF7A6FF284601210022FCF776
:103AC000A1FF6946304601224FF0FF33FEF754F95B
:103AD000204610210122FCF795FF11208DF80000EF
:103AE000204610210022FCF78DFF284601210022EC
:103AF000FCF788FF6946304601224FF0FF33FEF79E
:103B00003BF9204610210122FCF77CFF7820FCF7CE
:103B10005DFE13208DF80000204610210022FCF7E6
:103B200071FF284601210022FCF76CFF69463046F0
:103B300001224FF0FF33FEF71FF92046102101222A
:103B4000FCF760FF29208DF800002046102100229C
:103B5000FCF758FF284601210022FCF753FF694675
:103B6000304601224FF0FF33FEF706F920461021C0
:103B70000122FCF747FF3220FCF728FE0020FFF768
:103B800061FC05B0F0BD0000B0B582B040F60004A5
:103B9000C4F201040546204610210022FCF732FF42
:103BA0002120002D08BF20208DF80700204610217D
:103BB0000022FCF727FF04F5806001210022FCF7BA
:103BC00021FF40F20410C2F200000DF107010122B2
:103BD0004FF0FF33FEF7D0F8204610210122FCF70A
:103BE00011FF204610210122FCF70CFF02B0B0BDEE
:103BF0002DE9F04784B040F60004C4F201041646F3
:103C00000D4607462046102100229946FCF7FAFE91
:103C10002A208DF80D0020461021002205F1230AEC
:103C2000FCF7F0FE04F58065284601210022FCF730
:103C3000E9FE40F20418C2F200080DF10D01404601
:103C400001224FF0FF33FEF797F8204610210122A2
:103C5000FCF7D8FE380A8DF80900300A8DF80B0001
:103C60002046102100228DF80A708DF80C60FCF7B8
:103C7000C9FE284601210122FCF7C4FE0DF109010D
:103C8000404604224FF0FF33FEF776F8204610211D
:103C9000012209F12306FCF7B5FE2B208DF80E005A
:103CA000204610210022FCF7ADFE2846012100220B
:103CB000FCF7A8FE0DF10E01404601224FF0FF3344
:103CC000FEF75AF8204610210122FCF79BFE4FEA2E
:103CD0001A208DF80500300A8DF8070020461021C3
:103CE00000228DF806A08DF80860FCF78BFE2846B0
:103CF00001210122FCF786FE0DF105014046042258
:103D00004FF0FF33FEF738F8204610210122FCF770
:103D100079FE2C208DF80F00204610210022FCF7A0
:103D200071FE284601210022FCF76CFE0DF10F0107
:103D3000404601224FF0FF33FEF71EF820461021C7
:103D40000122FCF75FFE204610210122FCF75AFEFB
:103D500004B0BDE8F08700002DE9F04F85B040F6D3
:103D60000004C4F20104904689460546204610210D
:103D700000221E46FCF746FEF7B2C6F30726E819F6
:103D800009EB06010138013982B28BB22846494657
:103D9000FFF72EFF002E029618BF002F08D12046F5
:103DA00010210122FCF72EFE05B0BDE8F08F00BF08
:103DB000DDE90E06029A109BA8F1200151434FEA5B
:103DC000162B40F2041600EB41004FEA13280021A5
:103DD00004F58065C2F20006019004E003990298A0
:103DE00001318142DBD001984FF0000930F811A079
:103DF00003911EE0109810218DF81100204600223A
:103E00008DF81080FCF7FEFD284601210122FCF709
:103E1000F9FD304604A902224FF0FF33FDF7ACFF55
:103E2000204610210122FCF7EDFD09F101094F4563
:103E3000D4D00AFA09F00004DCD50F9810218DF8CF
:103E40001300204600228DF812B0FCF7DBFD284657
:103E500001210122FCF7D6FD30460DF11201DAE70F
:103E60002DE9F04F85B007460E989246049040F633
:103E700000000D46DDE90F6BC4F2010010210022A5
:103E80001C46FCF7BFFD9AF800203AB3C4F307289C
:103E90005FFA84F90AF1010A0FE000BF0498A9B2A1
:103EA000CDE90006B8B2D2B22346CDF808B0FFF78C
:103EB00053FF4F441AF8012B82B1B8B24844B0F511
:103EC000A07FEBD34544A8B24044A92806D8D0B27D
:103ED00020284FF00007E1D1ECE700BF40F60000DA
:103EE000C4F201001021012205B0BDE8F04FFCF73B
:103EF00089BD0000704700002DE9F04784B040F60E
:103F00000048C4F201088A46064640464FF48051F4
:103F100000224FF00009FCF775FD802040F25C158F
:103F200040EA4600C2F200058DF8090064240DF154
:103F3000090102AA284601230094FEF71BF80DF19F
:103F40000B010DF10A02284601238DF80B90009415
:103F5000FEF710F89DF80A7040464FF48051012298
:103F6000FCF750FD40464FF48051002247EA0A0713
:103F7000FCF748FD7E2000EA46008DF80D000DF1AB
:103F80000D0103AA284601230094FDF7F3FF0DF16C
:103F90000F010DF10E02284601238DF80F700094D9
:103FA000FDF7E8FF40464FF480510122FCF72AFD5F
:103FB00004B0BDE8F0870000FCF730BD704700009A
:103FC000FEE7000098B0FCF737FD092000240890B8
:103FD0004FF480300225CDE90904CDE90F504FF4AC
:103FE000E0100121119008A80D94CDE90B44CDE912
:103FF00006440C910E91FCF7ABFF28B1EFF3108053
:1040000072B600BFFEE700BF0F20CDE912054FF4E6
:104010008060CDE9150412A802211494FCF7A6FED5
:1040200020B1EFF3108072B6FEE700BF4FF0010B36
:104030004FF4007904A8CDF810B0CDF81490FCF737
:1040400013FE28B1EFF3108072B600BFFEE700BF89
:10405000002741F21800CDE90A77CDE90877C4F2CC
:104060000200016840F6000841F01001016001689B
:10407000C4F2010801F010011291129901680022A6
:1040800041F02001016001684FF4467601F0200103
:1040900012911299016841F004010160016801F078
:1040A000040112911299016841F008010160006851
:1040B0004FF4467100F00800129012984046FCF749
:1040C000A1FC08F58065284641F20101002241F279
:1040D000010AFCF797FCCDE9086B08AE02244046C4
:1040E00031460A970B94FCF785FB28463146CDE90B
:1040F00008ABCDE90A74FCF77DFB40F2F005C2F293
:10410000000508F52051284640F8141F4FF4827628
:104110000A24C0E90167C0E90377C0E90579C0E96D
:104120000777C0E90977C462FDF76CFD20B1EFF3B2
:10413000108072B6FEE700BF40F25C10A8F5504157
:10414000C2F200004FF4007280E8C200C0E90377B9
:10415000C0E90572C0E90777C0E90977C462FDF7D5
:1041600051FD28B1EFF3108072B600BFFEE700BF2B
:1041700040F60100C2F212601290A8F560400024DF
:104180004FF0FF314FF4807285E807002846CDE9F3
:104190000844FDF761FA28B1EFF3108072B600BF52
:1041A000FEE700BF43F21500ADF8100040F2F0004A
:1041B000C2F2000004A901228DF81240FDF778FC3C
:1041C00020B1EFF3108072B6FEE700BF40F2F000BE
:1041D000C2F2000012A90122FDF76EFB20B1EFF33D
:1041E000108072B6FEE700BF40F2F000C2F200009D
:1041F00008A90122FDF7CCFA20B1EFF3108072B6C6
:10420000FEE700BF00204FF6FF7A4FF00008FFF7EF
:1042100019F9FFF765F9FEF72DFA40F21004C2F222
:104220000004D4E9003046F26242CDE9000AC0F64B
:10423000000220201421CDF80880FFF711FE19207C
:104240002D214FF491722D23CDF800A0FFF75EF8D9
:10425000192032214FF491723223CDF800A0FFF7DC
:1042600055F8D4E9003046F27342CDE9000AC0F6B1
:10427000000237203C21CDF80880FFF7F1FDD4E99A
:10428000003046F25742CDE9000AC0F6000237205E
:104290005F21CDF80880FFF7E3FDFEF753FF40F202
:1042A000F00446F2934B40F20809C2F2000408AD54
:1042B000C0F6000B12AFC2F2000900BF20460DF19C
:1042C0005D010022FDF7AAF8204604A90022FDF7AF
:1042D0003FF89DF85D209DF85E309DF85F6046F2E6
:1042E000A4412846C0F600010096FBF787FF9DF821
:1042F00011309DF812209DF81360384659460096FB
:10430000FBF77CFFD9E900308221CDE9000A1920B2
:104310002A46CDF80880FFF7A3FDD9E900308221B5
:10432000CDE9000AB4203A46CDF80880FFF798FDA1
:10433000FCF752F9C2E730380A2801D20120704751
:104340000020704704000008000000000000000288
:104350000001000010000000000000000001020346
:104360000406070809000000000102030400000021
:10437000000000000000000000000000000000003D
:10438000000000000000000000000000000000002D
:1043900000000000000C000C000C000C000C000CD5
:1043A000000C000C000C000C000C0000000C000CB9
:1043B0000000000000000000001B001B001B001B91
:1043C000001B0000000000000000000000000000D2
:1043D00000000000000000000000000080198019AB
:1043E00080198019C07FC07F80190033C07FC07FD3
:1043F00000330033003300330000000000000000F1
:10440000001E003F807580650074003C001E0007A0
:104410008005806580658075003F001E00040004F3
:1044200000000000007000D840D8C0D880D90073C8
:104430000006000C801BC036C066C046C006800364
:104440000000000000000000001E003F00330033A9
:104450000033001E000CC03CC06680638061806336
:10446000C03E801C0000000000000000000C000C9A
:10447000000C000C000C0000000000000000000018
:1044800000000000000000000000000000008000AC
:1044900000010003000600060004000C000C000CE4
:1044A000000C000C000C00040006000600030001D4
:1044B0008000002000100018000C000C0004000612
:1044C000000600060006000600060004000C000CB2
:1044D0000018001000200000000C002D003F001EFE
:1044E0000033000000000000000000000000000099
:1044F00000000000000000000000000000000000BC
:10450000000C000C000C000CC0FFC0FF000C000CE5
:10451000000C000C00000000000000000000000083
:10452000000000000000000000000000000000008B
:104530000000000000000000000C000C000400045B
:104540000008000000000000000000000000000063
:1045500000000000001E001E00000000000000001F
:10456000000000000000000000000000000000004B
:10457000000000000000000000000000000000003B
:10458000000C000C0000000000000000000300030D
:1045900000030006000600060006000C000C000CDC
:1045A000000C0018001800180000000000000000B7
:1045B000001E003F0033806180618061806D806DEE
:1045C0008061806180610033003F001E00000000B8
:1045D000000000000006000E001E00360026000647
:1045E000000600060006000600060006000600069B
:1045F0000000000000000000001E003F807380618A
:104600008061800100030006000C0018003000608B
:10461000807F807F0000000000000000001C003E42
:10462000006300630003000E000E000380018001A0
:1046300080618073003F001E000000000000000049
:104640000006000E000E001E001E0016003600368A
:104650000066807F807F00060006000600000000E4
:1046600000000000007F007F006000600060006EBE
:10467000007F80638001800180618073003F001EA5
:104680000000000000000000001E003F8033806139
:104690000060006E007F8073806180618061803384
:1046A000003F001E0000000000000000807F807FAF
:1046B00080010003000300060006000C000C000C43
:1046C000000800180018001800000000000000009A
:1046D000001E003F8063806180610021001E003F5A
:1046E0008061806180618061003F001E00000000E9
:1046F00000000000001E003F007380618061806147
:104700008073803F801D800180610073003F001E28
:104710000000000000000000000000000000000099
:10472000000C000C00000000000000000000000071
:10473000000C000C00000000000000000000000061
:10474000000000000000000C000C00000000000051
:1047500000000000000C000C000400040008000031
:1047600000000000000080008003000E00380060A0
:104770000038000E800380000000000000000000F0
:10478000000000000000000000000000807F807F2B
:1047900000000000807F807F00000000000000001B
:1047A00000000000000000000000000000000040C9
:1047B0000070001C000780010007001C0070004012
:1047C000000000000000000000000000001F803F0B
:1047D000C071C060C000C00180030007000E000C63
:1047E000000C0000000C000C0000000000000000A5
:1047F000001E003F803180718063806F806D806D0E
:10480000806F806700600032003E001C00000000E6
:1048100000000000000E000E001B001B001B001B10
:1048200080318031803F803F8031C060C060C06097
:104830000000000000000000007C007E00630063B8
:1048400000630063007E007E00638061806180639E
:10485000007F007E0000000000000000001E003FFE
:104860008031806100600060006000600060006076
:1048700080618031003F001E000000000000000049
:10488000007C007F00638063806180618061806163
:104890008061806100630063007E007C0000000096
:1048A00000000000807F807F00600060006000608A
:1048B000007F007F0060006000600060807F807F7C
:1048C0000000000000000000807F807F006000602A
:1048D00000600060007F007F00600060006000609A
:1048E000006000600000000000000000001E003FAB
:1048F000803180610060006000608063806380615F
:1049000080618031803F001E000000000000000038
:10491000806180618061806180618061807F807F53
:104920008061806180618061806180610000000041
:1049300000000000003F003F000C000C000C000CC9
:10494000000C000C000C000C000C000C003F003FA1
:104950000000000000000000800180018001800153
:10496000800180018001800180018061806180730D
:10497000003F001E0000000000000000C0608061D9
:10498000006300660066006C0078007C00660066CC
:10499000006380618061C0600000000000000000D2
:1049A0000060006000600060006000600060006007
:1049B0000060006000600060807F807F0000000079
:1049C00000000000C071C071C07BC07AC06AC06ABC
:1049D000C06EC064C060C060C060C060C060C060C5
:1049E00000000000000000008071807180798079F3
:1049F0008079806D806D806D80658067806780675D
:104A0000806380630000000000000000001E003F83
:104A1000003380618061806180618061806180613C
:104A200080610033003F001E000000000000000015
:104A3000007E007F80638061806180618063007F91
:104A4000007E006000600060006000600000000008
:104A500000000000001E003F003380618061806123
:104A6000806180618061806580670033803F401E87
:104A70000000000000000000007E007F8063806175
:104A800080618063007F007E006600630063806158
:104A90008061C0600000000000000000000E001FE8
:104AA0008031803100300038001E000780038061B3
:104AB00080618031003F001E000000000000000007
:104AC000C0FFC0FF000C000C000C000C000C000C20
:104AD000000C000C000C000C000C000C000000008E
:104AE0000000000080618061806180618061806180
:104AF000806180618061806180618073003F001E01
:104B00000000000000000000C060C060C060803194
:104B100080318031001B001B001B001B000E000EAB
:104B2000000E00040000000000000000C0C0C0C073
:104B3000C0C0C0C0C0C0C0CC804C804C805E805221
:104B400080528073806180610000000000000000DE
:104B5000C0C0806080610033003B001E000C000C70
:104B6000001E001F003B80718061C0C0000000007B
:104B700000000000C0C08061806100330033001E6F
:104B8000001E000C000C000C000C000C000C000CB3
:104B90000000000000000000803F803F8001000313
:104BA00000030006000C000C001800180030006024
:104BB000807F807F000000000000000F000F000CCD
:104BC000000C000C000C000C000C000C000C000C85
:104BD000000C000C000C000C000C000F000F00007B
:104BE000001800180018000C000C000C000C000647
:104BF000000600060006000300030003000000009A
:104C00000000001E001E000600060006000600064A
:104C10000006000600060006000600060006000664
:104C20000006001E001E0000000C000C001E0012FA
:104C3000003300338061806100000000000000004C
:104C40000000000000000000000000000000000064
:104C50000000000000000000000000000000000054
:104C600000000000000000000000E0FF0000000065
:104C700000380018000C00000000000000000000D8
:104C80000000000000000000000000000000000024
:104C9000000000000000000000000000001F803F36
:104CA00080618001801F803F80618063807FC03889
:104CB0000000000000000000006000600060006074
:104CC000006E007F8073806180618061806180738D
:104CD000007F006E000000000000000000000000E7
:104CE00000000000001E003F8073806100600060D3
:104CF00080618073003F001E000000000000000083
:104D00008001800180018001801D803F807380616F
:104D10008061806180618073803F801D00000000A1
:104D2000000000000000000000000000001E003F26
:104D300000738061807F807F00608071003F001E73
:104D40000000000000000000C007C00F000C000CB5
:104D5000807F807F000C000C000C000C000C000C0D
:104D6000000C000C0000000000000000000000002B
:104D70000000801D803F8073806180618061806160
:104D80008073803F801D80018063007F003E0000B3
:104D90000060006000600060006F807F8071806153
:104DA00080618061806180618061806100000000BD
:104DB000000000000006000600000000003E003E6B
:104DC00000060006000600060006000600060006B3
:104DD0000000000000000006000600000000003E89
:104DE000003E00060006000600060006000600065B
:104DF000000600060046007E003C000000600060E7
:104E000000600060806100630066006C007C0076DA
:104E1000006300638061C0600000000000000000CB
:104E2000003E003E000600060006000600060006E2
:104E3000000600060006000600060006000000004E
:104E400000000000000000000000000080DDC0FF46
:104E5000C0CEC0CCC0CCC0CCC0CCC0CCC0CCC0CCF0
:104E60000000000000000000000000000000000042
:104E7000006F807F8071806180618061806180616E
:104E80008061806100000000000000000000000060
:104E900000000000001E003F80738061806180611F
:104EA00080618073003F001E0000000000000000D1
:104EB000000000000000006E007F80738061806150
:104EC000806180618073007F006E00600060006020
:104ED00000600000000000000000801D803F807323
:104EE00080618061806180618073803F801D80016E
:104EF000800180018001000000000000000000002F
:104F00000067803F00390030003000300030003052
:104F10000030003000000000000000000000000031
:104F200000000000001E803F80610060007F803F25
:104F300080018061007F001E000000000000000072
:104F40000000000800180018007F007F00180018FB
:104F50000018001800180018801F800F00000000C3
:104F6000000000000000000000000000806180617F
:104F7000806180618061806180618063807F803D2D
:104F80000000000000000000000000000000000021
:104F9000C060803180318031001B001B001B000E7F
:104FA000000E0006000000000000000000000000ED
:104FB0000000000080DD80DD80DD005500550055DB
:104FC00000770077002200220000000000000000AF
:104FD0000000000000000000806100330033001E6C
:104FE000000C000C001E0033003380610000000044
:104FF000000000000000000000008061806180313E
:1050000000330033001B001B001B000E000E000EBF
:10501000001C007C00700000000000000000000088
:10502000C07FC07F800100030006000C0018003024
:10503000C07FC07F000000000000800380070006E2
:105040000006000600060006000E001C001C000EF4
:105050000006000600060006000680078003000622
:105060000006000600060006000600060006000610
:105070000006000600060006000600060006000600
:1050800000060038003C000C000C000C000C000C6A
:10509000000E00070007000E000C000C000C000CB6
:1050A000000C003C00380000000000000000000080
:1050B000000000008038807F0047000000000000F2
:1050C00000000000000000000000000000000000E0
:1050D00000000000000000000000000000000000D0
:1050E00000000000000000000000000000000000C0
:1050F0000000000000000000000000000000E003CD
:10510000E003E003E003E003E003E003E003C003A7
:10511000C003C001C001C001C001C0010000000007
:105120000000E003E003E0030000000000000000D6
:1051300000003C1E3C1E3C1E3C1E3C1E3C1E3C1EF9
:10514000000000000000000000000000000000005F
:10515000000000000000000000000000000000004F
:10516000000000000000CE01CE03DE039E039C037E
:105170009C07FF3FFF7F3807380F780F780F780EB6
:10518000FFFFFFFFF01EF01CE01CE03CE03DE039BB
:1051900000000000000000000000FC03FE0FEE1FF6
:1051A000E01EE01EE01EE01EE01FE00FE007F0033F
:1051B000FC01FE01FE01FE01FE01FE01FE01FE3DBD
:1051C000FC3FF00FE001E001000000000000033EA2
:1051D00007F78FE78EE79EE3BCE3B8E7F8E7F0F761
:1051E000E03FC001FF03FF07F307F30FF31EF33C9B
:1051F000F338F3787FF03FE000000000000000008B
:105200000000E007F80F780F781F781F781F780FDD
:10521000F00FE00F801FC37FC3FBE7F3F7F1F7F058
:10522000FFF07FF03EF87F7CFF3FEF1F00000000A3
:10523000000000000000E003E003E003E003E003FF
:10524000C003C001000000000000000000000000DA
:10525000000000000000000000000000000000004E
:10526000000000000000000000003F007C00F00192
:10527000E001C003C00780078007800F000F000F08
:10528000000F000F000F000F800F80078007C0077E
:10529000C003E001F0017C003F000F000000007E31
:1052A000001FC007C003E001F001F000F000F800AB
:1052B000780078007800780078007800F800F00036
:1052C000F000F001E001C003C007001F007E00787D
:1052D0000000E003C003C001CE39FF3F7F3F200341
:1052E0007003F807780F3C1F38060000000000002C
:1052F00000000000000000000000000000000000AE
:10530000000000000000000000000000000000009D
:105310000000C001C001C001C001C001C001C00146
:10532000FFFFFFFFC001C001C001C001C001C001FB
:10533000000000000000000000000000000000006D
:10534000000000000000000000000000000000005D
:10535000000000000000000000000000E003E00387
:10536000E003E003E001E001E001C0018003000090
:10537000000000000000000000000000000000002D
:1053800000000000FE3FFE3F0000000000000000A3
:10539000000000000000000000000000000000000D
:1053A00000000000000000000000000000000000FD
:1053B00000000000000000000000000000000000ED
:1053C00000000000E003E003E003E0030000000051
:1053D0000000000000000F000F001E001E003C0037
:1053E0003C0078007800F000F000E001E001C0032C
:1053F000C00380078007000F000F001E001E003C46
:10540000003C0078007800F00000F007F80F7C1FE7
:105410003E3E1E3C1F7C1F7C0F780F780F780F7864
:105420000F780F780F781F7C1F7C1E3C3E3E7C1F40
:10543000F80FF00700000000000000000000F0007E
:10544000F007F03FF03FF001F001F001F001F00152
:10545000F001F001F001F001F001F001F001F001C4
:10546000F001F001FF3FFF3F0000000000000000DE
:105470000000E00FF83F7C3C3C003E003E003E0058
:105480003C003C007C00F800F001E003C00780070E
:10549000000F001E003E003CFE3FFE3F00000000EB
:1054A000000000000000F00FF81F7C1C3E003E00D2
:1054B0003E003C003C00F800F00FF80F7C003E007E
:1054C0001E001E001E001E003E007C1CF81FE01F78
:1054D000000000000000000000007800F800F80064
:1054E000F801F803F807F807780F781E781E783C63
:1054F00078787878FFFFFFFF7800780078007800F0
:105500007800780000000000000000000000FC1F90
:10551000FC1FFC1F001E001E001E001E001EE01FC0
:10552000F81FFC007C003E003E001E003E003E00D6
:105530003C007C1CF81FE01F000000000000000081
:105540000000FC01FE078E0F001F001E003E003C05
:10555000003CF83DFC3F3E7F1F7E0F3C0F3C0F3C64
:105560000F3C0F3E1F1E3E1FFC0FF003000000000B
:10557000000000000000FF3FFF3FFF3F0F001E0044
:105580001E003C0038007800F000F000E001E0016F
:10559000C003C0038007800F800F000F001F001F93
:1055A00000000000000000000000F807FC0F3E1F94
:1055B0001E1E1E3E1E3E1E1E3C1FF80FF007F80F5B
:1055C000FC1E3E3E1F3C1F7C0F7C0F7C1F3C3E3F61
:1055D000FC1FF00700000000000000000000F007C2
:1055E000F80F7C1E3E3C1E3C1F7C1F7C1F7C1F7CDA
:1055F0001F3C3F3EFF1FEF071F001E001E003E0026
:105600003C00F838F03FE01F000000000000000000
:105610000000000000000000000000000000E003A7
:10562000E003E003E00300000000000000000000D1
:1056300000000000E003E003E003E00300000000DE
:10564000000000000000000000000000000000005A
:105650000000E003E003E003E003000000000000BE
:105660000000000000000000E003E003E003E003AE
:10567000E001E001E001C003800300000000000041
:1056800000000000000003000F003F00FC00F003DA
:10569000C00F003F00FE003FC00FF003FC003F00C2
:1056A0000F000300000000000000000000000000E8
:1056B00000000000000000000000000000000000EA
:1056C0000000FFFFFFFF000000000000FFFFFFFFE2
:1056D00000000000000000000000000000000000CA
:1056E000000000000000000000000000000000E0DA
:1056F00000F8007E801FE007F8017E001F007E009A
:10570000F801E007801F007E00F800E000000000C4
:10571000000000000000F01FFC3F3E381F381F381B
:105720001E001E003C007800F000E001C003C00332
:10573000C007C007000000000000C007C007C00786
:1057400000000000000000000000F803FE0F1E1F14
:105750000F3E7F3CFF78EF79C773C7F38FF38FF36A
:105760008FF39FF39FF3FF73FF7BF779003C1C1FC0
:10577000FC0FF80300000000000000000000000023
:1057800000000000E003E003F007F007F007780FE7
:10579000780F7C0E3C1E3C1E3E3CFE3FFF3F1F78B8
:1057A0000F780FF007F007F0000000000000000085
:1057B0000000000000000000F83FFC3F3E3C1E3CA3
:1057C0001E3C1E3C3E3C7C3CF03FF83F7E3C1F3C78
:1057D0001F3C0F3C0F3C1F3CFE3FF83F0000000009
:1057E000000000000000000000000000FF01FF07B3
:1057F000871F003E003C007C00780078007800782D
:105800000078007C007C003E003F831FFF07FF0103
:105810000000000000000000000000000000000088
:10582000F07FFC7F7E781F781F780F780F780F78D5
:105830000F780F780F780F780F781F781E787E78A2
:10584000F87FE07F00000000000000000000000082
:1058500000000000FF3FFF3F003E003E003E003ED4
:10586000003E003EFE3FFE3F003E003E003E003E4A
:10587000003E003EFF3FFF3F000000000000000030
:105880000000000000000000FF1FFF1F001E001EA0
:10589000001E001E001E001EFF1FFF1F001E001E18
:1058A000001E001E001E001E001E001E0000000044
:1058B000000000000000000000000000FE03FF0FD9
:1058C000871F003E007C007C007800F800F87FF81D
:1058D0007FF80F780F7C0F7C0F3E8F1FFF0FFE03AA
:1058E00000000000000000000000000000000000B8
:1058F0001F7C1F7C1F7C1F7C1F7C1F7C1F7C1F7CD0
:10590000FF7FFF7F1F7C1F7C1F7C1F7C1F7C1F7CF9
:105910001F7C1F7C00000000000000000000000051
:1059200000000000FF3FFF3FE003E003E003E0036F
:10593000E003E003E003E003E003E003E003E0034F
:10594000E003E003FF3FFF3F000000000000000015
:105950000000000000000000FC1FFC1F7C007C0019
:105960007C007C007C007C007C007C007C007C0057
:105970007C0078007800F838F03FC03F000000005D
:105980000000000000000000000000001F3C1E3C62
:105990003C3C783CF03CE03DE03FC03F803FC03FB6
:1059A000E03FF03DF03C783C7C3C3E3C1F3C0F3CF3
:1059B00000000000000000000000000000000000E7
:1059C000003E003E003E003E003E003E003E003EE7
:1059D000003E003E003E003E003E003E003E003ED7
:1059E000FF3FFF3F0000000000000000000000003B
:1059F000000000001FF81FFC1FFC3FFE3FFE3FFEA3
:105A00007FFF77FF77FFF7F7E7F7E7F3E7F3C7F3F2
:105A100007F007F007F007F00000000000000000AA
:105A200000000000000000000F7C0F7C0F7E0F7F45
:105A30000F7F8F7F8F7FCF7FEF7BEF79FF79FF78AD
:105A4000FF787F783F783F781F781F78000000004C
:105A5000000000000000000000000000F007FC1F34
:105A60003E3E1F7C0F780F780FF80FF80FF80FF8F5
:105A70000FF80FF80F780F781F7C3E3EFC1FF007E1
:105A80000000000000000000000000000000000016
:105A9000FC3FFF3F1F3E0F3E0F3E0F3E0F3E1F3E9F
:105AA0003F3EFC3FF03F003E003E003E003E003ED9
:105AB000003E003E0000000000000000000000006A
:105AC00000000000F007FC1F3E3E1F7C0F780F789F
:105AD0000FF80FF80FF80FF80FF80FF80F780F788E
